:020000040800F2
:10000000F047002061020008BD320008D72F000829
:10001000B93200083F0400089943000800000000BE
:10002000000000000000000000000000A101000826
:10003000BF07000800000000FD010008813900082A
:100040007B0200087B0200087B0200087B0200089C
:100050007B0200086D3800087B0200087B02000864
:100060007B0200087B0200087B0200087B0200087C
:100070007B0200087B0200087B0200087B0200086C
:100080007B0200087B0200087B0200087504000860
:100090004504000855040008650400087B020008B8
:1000A0007B020008853A00087B0200087B020008FA
:1000B0007B020008953A00087B0200087B020008DA
:1000C0007B0200087B0200087B0200087B0200081C
:1000D0007B020008894300087B0200087B020008BD
:1000E0007B0200087B0200087B0200087B020008FC
:1000F0007B0200087B0200087B0200087B020008EC
:100100007B0200087B0200087B0200087B020008DB
:100110007B0200087B0200087B0200087B020008CB
:100120007B0200087B0200087B0200087B020008BB
:100130007B0200087B0200087B020008A50400087F
:1001400085040008950400087B0200087B02000873
:10015000A50600087B0200087B0200087B0200085D
:100160007B0200087B0200087B0200087B0200087B
:100170007B0200087B0200087B02000800000000F0
:100180007B0200087B020008DFF810D000F01AF9AB
:10019000004800472D470008AFF30080F0470020DB
:1001A0002C4B19680868B0E8F04F80F30988BFF35A
:1001B0006F8F4FF0000080F311887047000000003F
:1001C00008480068006880F308884FF0000080F35A
:1001D000148862B661B6BFF34F8FBFF36F8F00DF35
:1001E00000BF00BF08ED00E0DFF80C00016841F43B
:1001F00070010160704700BF88ED00E0EFF30980F7
:10020000BFF36F8F134B1A681EF0100F08BF20ED5D
:10021000108A20E9F04F106009B44FF0500080F3CD
:100220001188BFF34F8FBFF36F8F05F01BFA4FF0AC
:10023000000080F3118809BC19680868B0E8F04F25
:100240001EF0100F08BFB0EC108A80F30988BFF3CE
:100250006F8F704734020020EFF305807047000075
:100260000648804706480047FEE7FEE7FEE7FEE750
:10027000FEE7FEE7FEE7FEE7FEE7FEE7713A00086D
:10028000890100082DE9F05F0546002092469B4653
:1002900088460646814640241BE02846414647469C
:1002A000224600F07EF853465A46C01A914110D3B8
:1002B00011461846224600F065F82D1A67EB010832
:1002C0004F4622460120002100F05CF817EB0009A0
:1002D0004E41201EA4F10104DFDC484631462A4687
:1002E0004346BDE8F09F40EA01039B0703D009E0C5
:1002F00008C9121F08C0042AFAD203E011F8013B12
:1003000000F8013B521EF9D27047D2B201E000F86A
:10031000012B491EFBD270470022F6E710B51346A9
:100320000A4604461946FFF7F0FF204610BD00F0CC
:10033000004230F000400AD0C10D01F56071C0F3F9
:10034000160042EA0151C2084007114370470020DD
:100350000146704730B5041E71F1000404DB4FF014
:100360000044404264EB0101141E73F1000405DBFC
:100370001C464FF00043524263EB04038B4208BF1C
:10038000824230BD202A04DB203A00FA02F100202C
:1003900070479140C2F1200320FA03F319439040C3
:1003A0007047202A04DB203A21FA02F0002170472E
:1003B00021FA02F3D040C2F12002914008431946CD
:1003C00070470000064C074D06E0E06840F001036E
:1003D00094E8070098471034AC42F6D3FFF7D8FEF4
:1003E000D05C0008F05C000870B58C1810F8015B58
:1003F00015F0070301D110F8013B2A1106D110F8BE
:10040000012B03E010F8016B01F8016B5B1EF9D1C1
:100410002B0705D40023521E0DD401F8013BFAE747
:1004200010F8013BCB1A921C03E013F8015B01F8B2
:10043000015B521EF9D5A142D8D3002070BD00BF88
:10044000FEE7000010B5024800F023FC10BD0000DC
:100450006805002010B5024800F01BFC10BD00002C
:100460006805002010B5024800F013FC10BD000024
:100470006805002010B5024800F00BFC10BD00001C
:100480006805002010B5024800F003FC10BD000014
:100490009005002010B5024800F0FBFB10BD0000E5
:1004A0009005002010B5024800F0F3FB10BD0000DD
:1004B0009005002010B58AB004461C492068884287
:1004C00016D1002005900690012007900020009092
:1004D0000190029003900490012008900E20099052
:1004E0006946204600F07AFA204600F046FF1BE0FD
:1004F0000F492068884217D10E20059000200690F1
:1005000001200790002000900190029003900120AC
:10051000049008900E2009906946204600F05EFA8B
:10052000204600F02AFF00BF0AB010BD0064004062
:100530000068004070B588B004460D461646082095
:10054000059000200390049001952068806800F0D9
:10055000006010B1022007900EE02068806800F073
:10056000805010B10420079006E02068806800F0F9
:10057000806008B10120079007AB324601A92046F0
:1005800000F087F908B070BD002015490988A1F571
:10059000806100EE101A10EE101A002901DB0A46E5
:1005A00000E04A42142A01D2C0200FE09FED0D1A4C
:1005B000F0EE410AF8EEC01A9FED0B1A01EEA01AF8
:1005C000BCEEC11A11EE101A88B200BF41F69D119F
:1005D000884200DD0846C02800DAC02070470000CD
:1005E000B8020020934D1A410000404300B9704703
:1005F0000178427841EA0221C1F30A01264A1180BA
:100600004178C910827841EA4211C1F30A01224AB5
:10061000518081788911C27841EA8201027941EAE8
:100620008221C1F30A011C4A918001794910427963
:1006300041EAC211C1F30A01174AD1804179091177
:10064000890811724179C1F3011151728179C2791E
:1006500041EA022109B2114A1180017A427A41EA43
:10066000022109B20D4A5180817AC27A41EA0221FF
:1006700009B20A4A9180017B9171417BD171817BE2
:10068000074A1180017C427C41EA0221C1F30A0140
:10069000014A518100BFAAE7B802002034000020BF
:1006A0003C00002010B5024800F008FF10BD00001B
:1006B000540600200146087810381823B0FBF3F2E6
:1006C0000848805CC865032A05D908686FF30900EB
:1006D000001D886503E008686FF309008865886D70
:1006E00070470000705C0008014600208A6A8B6930
:1006F000CBB932B1012A0DD0022A03D0032A10D17E
:100700000EE000BFCB6A03F08073B3F1807F00D1AD
:10071000012007E0CB6AB3F1C07F00D1012001E0E6
:1007200000E000BF34E08B69B3F5005F1AD132B14D
:10073000012A07D0022A03D0032A11D10AE000BF00
:1007400001200EE0CB6A03F08073B3F1807F00D10B
:10075000012006E0CB6AB3F1C07F00D1012000E0A8
:1007600000BF15E032B1012A05D0022A04D0032AC5
:100770000CD103E000BF00BF012008E0CB6A03F00A
:100780008073B3F1807F00D1012000E000BF00BF83
:10079000704730B50468246824F4802405682C6010
:1007A000046863608468402C04D10468A260046813
:1007B000E16003E00468A1600468E26030BD704756
:1007C00072B600BFFEE70000F0EE401A9FED252A4A
:1007D000B0EE420AC168012904DA9FED222AB0EE88
:1007E000420A2FE0C16802290CDA90ED002AD0ED10
:1007F000012A32EE622A22EE212AC2EE012AB0EE4E
:10080000620A1FE090ED002AD0ED012A32EE622A42
:1008100022EE212AC2EE012A90ED002A90ED013A43
:10082000F0EE003A03EEC32A90ED023A32EE032ACC
:1008300022EE202A21EE013AC2EE033A32EEA32A3A
:10084000B0EE420A90ED012A80ED022A90ED002AD6
:1008500080ED012AC168022902DAC168491CC16021
:10086000704700000000000010B5024692F82030EA
:10087000012B01D0022B06D110684069084314688F
:100880006061002010BD506A40F480205062012059
:10089000F8E7F0B504460D461E4694F8207020682F
:1008A0008368A86800B900E000BF012F01D0022FC3
:1008B0007DD103F0806030B903F0006018B903F017
:1008C000805000287ED0C3F3016101208840306051
:1008D000A86860B9B5F800C0E86840EA4C5C2068D8
:1008E00000F5C07000EB0110C0F800C00FE0D5E9C2
:1008F00001C040EACC00D5F80CC040EA0C00D4F8A6
:1009000000C00CF5C07C0CEB011CCCF80000D5F845
:1009100010C0206800F5C07000EB0110C0F804C0E2
:10092000287D01280ED1206800F5C07000EB011071
:10093000406840F4807C206800F5C07000EB011036
:10094000C0F804C0D079000692F806C040EA0C4016
:1009500092F805C040EA0C2092F804C040EA0C006E
:10096000D4F800C00CF5C07C0CEB011CCCF80C00DA
:10097000D078000692F802C040EA0C4092F801C01C
:1009800040EA0C2092F800C040EA0C00D4F800C005
:100990000CF5C07C0CEB011CCCF80800206800F5BD
:1009A000C07000EB0110006840F0010C01E00FE0A6
:1009B00008E0206800F5C07000EB0110C0F800C02E
:1009C0000020F0BD606A40F4001060620120F8E78A
:1009D000606A40F4802060620120F2E7F0B50446CE
:1009E0000A4694F82050012D01D0022D7ED14249B3
:1009F00001F50071086840F001000860086820F403
:100A00007C5008600868566A40EA06200860107D3D
:100A100000F01F06012000FA06F3C8699843C86178
:100A2000A1F50071D069C8B9D1F80C029843C1F89A
:100A30000C02908880B2968940EA064601F5107053
:100A4000576940F83760108880B2168940EA064638
:100A500001F51070576900EBC7004660D0690128A6
:100A600019D1D1F80C021843C1F80C02908880B259
:100A7000168840EA064601F51070576940F837605D
:100A8000908980B2168940EA064601F510705769D0
:100A900000EBC7004660906928B9D1F8040298437A
:100AA000C1F8040204E0D1F804021843C1F80402BA
:100AB000106928B9D1F814029843C1F8140204E06F
:100AC000D1F814021843C1F81402106A012804D1A5
:100AD000D1F81C021843C1F81C02D1F8000220F022
:100AE0000100C1F800020020F0BDFFE7606A40F499
:100AF000802060620120F7E700640040704770B515
:100B0000044694F82050012D01D0022D7DD151B919
:100B10002068C06800F0030080B9606A40F40010EB
:100B20006062012070BD2068006900F0030028B9F0
:100B3000606A40F4001060620120F3E7206800F56D
:100B4000D87000EB0110006800F00400906090681D
:100B500040B9206800F5D87000EB01100068400D26
:100B6000106007E0206800F5D87000EB0110006805
:100B7000C0085060206800F5D87000EB01100068D4
:100B800000F00200D060206800F5D87000EB011082
:100B9000406800F00F00082802D30820106108E028
:100BA000206800F5D87000EB0110406800F00F00DD
:100BB0001061206800F5D87000EB0110406800F467
:100BC0007F40000A9061206800F5D87000EB0110AA
:100BD0004068000C5061206800F5D87000EB0110EF
:100BE00080681870206800F5D87000EB01108068EC
:100BF00000F47F40000A5870206800F5D87000EBC0
:100C00000110806800F47F0000E03CE0000C987068
:100C1000206800F5D87000EB01108068000ED870D5
:100C2000206800F5D87000EB0110C06818712068CA
:100C300000F5D87000EB0110C06800F47F40000A96
:100C40005871206800F5D87000EB0110C06800F4FE
:100C50007F00000C9871206800F5D87000EB01103F
:100C6000C068000ED87131B92068C06840F020001B
:100C70002668F06005E02068006940F020002668E2
:100C8000306100204EE7606A40F4802060620120FD
:100C900048E72DE9F05F0446002520684669206892
:100CA000D0F80490206887682068D0F80CA02068ED
:100CB000D0F810B02068D0F8188006F001000028A5
:100CC00055D007F00100C0B101202168886007F00D
:100CD000020018B1204600F080FB0EE007F004008F
:100CE00010B145F4006508E007F0080010B145F4C4
:100CF000805502E0204600F06FFB07F48070C8B119
:100D00004FF480702168886007F4007018B12046A5
:100D100000F065FB0EE007F4806010B145F400556B
:100D200008E007F4006010B145F4804502E0204679
:100D300000F054FB07F48030C8B14FF480302168D4
:100D4000886007F4003018B1204600F04AFB0EE03E
:100D500007F4802010B145F4004508E007F40020B6
:100D600010B145F4803502E0204600F039FB06F072
:100D7000080038B10AF0100020B145F400751020C9
:100D80002168C86006F0040040B10AF0080028B1EC
:100D900008202168C860204600F036FA06F00200FC
:100DA00038B12068C06800F0030010B1204600F0A0
:100DB0002DFA06F0400038B10BF0100020B145F4D8
:100DC000806510202168086106F0200040B10BF01A
:100DD000080028B1082021680861204600F072FA56
:100DE00006F0100038B12068006900F0030010B16F
:100DF000204600F069FA06F4003040B109F0100016
:100E000028B1102021684860204600F0B5FA06F4A9
:100E1000803040B109F0080028B1082021684860FE
:100E2000204600F0DFFA06F4004088B309F0040021
:100E300078B306F4807020B108F0010008B145F0E5
:100E4000010506F4007020B108F0020008B145F079
:100E5000020506F4806020B108F0040008B145F0F6
:100E6000040506F40060A0B108F0700088B108F035
:100E70007000402817D006DC10280BD020280CD09A
:100E8000302819D10CE0502810D0602814D110E07F
:100E90001DE019E045F008050FE045F010050CE0F5
:100EA00045F0200509E045F0400506E045F08005E5
:100EB00003E045F4807500E000BF00BF2068806952
:100EC00020F07000216888610420216848602DB1FD
:100ED000606A284360622046FFF710FEBDE8F09F7D
:100EE00070B504460CB9012070BD94F8200010B90B
:100EF000204600F0AFF82068006840F0010021684B
:100F0000086000F0B5FD05460DE000F0B1FD401BA6
:100F10000A2808D9606A40F400306062052084F82D
:100F200020000120E0E72068406800F00100002870
:100F3000EBD02068006820F002002168086000F013
:100F400097FD05460DE000F093FD401B0A2808D9E7
:100F5000606A40F400306062052084F820000120BF
:100F6000C2E72068406800F002000028EBD1207E34
:100F7000012806D12068006840F0800021680860E0
:100F800005E02068006820F0800021680860607E2D
:100F9000012806D12068006840F040002168086000
:100FA00005E02068006820F0400021680860A07E0D
:100FB000012806D12068006840F020002168086000
:100FC00005E02068006820F0200021680860E07ECD
:100FD000012806D12068006820F010002168086010
:100FE00005E02068006840F0100021680860207F5C
:100FF000012806D12068006840F0080021680860D8
:1010000005E02068006820F0080021680860607F23
:10101000012806D12068006840F0040021680860BB
:1010200005E02068006820F0040021680860D4E929
:101030000201084321690843616908436168491E48
:1010400008432168C86100206062012084F8200004
:10105000002049E710B586B00446142101A8FFF727
:101060005BF963492068884259D162480068401C96
:10107000604908600846006801280FD100BF0020C1
:1010800000905D48006840F000705B4908600846C9
:10109000006800F00070009000BF00BF00BF00209B
:1010A000009055481038006840F008005249103947
:1010B00008600846006800F00800009000BF00BF0C
:1010C000032001900220029000200390032004904E
:1010D0000920059001A9494800F0D0FB0022052114
:1010E000132000F0C3FD132000F0ACFD0022052109
:1010F000142000F0BBFD142000F0A4FD0022052107
:10110000152000F0B3FD152000F09CFD0022052104
:10111000162000F0ABFD162000F094FD65E0384984
:101120002068884261D100BF0020009032480068EA
:1011300040F08060304908600846006800F0806038
:10114000009000BF00BF2B480068401C2949086080
:101150000846006801280FD100BF002000902648F3
:10116000006840F00070244908600846006800F0FC
:101170000070009000BF00BF00BF002000901E481C
:101180001038006840F002001B491039086008461A
:10119000006800F00200009000BF00BF4FF4405014
:1011A0000190022002900020039003200490092067
:1011B000059001A9134800F061FB002205213F20A2
:1011C00000F054FD3F2000F03DFD002205214020AD
:1011D00000F04CFD402000F035FD002205214120AB
:1011E00000F044FD412000F02DFD06B010BD0000D0
:1011F000006400402002002040380240000C024001
:1012000000680040000402407047000010B504462A
:1012100027492068884249D1264B274A0021204689
:10122000FFF76DFC24480068B0F5007F21D0A0F2E4
:101230000A20D0BB1F4840781E49097840EA0120A7
:1012400000B21E4908801B48C0781A49897840EAD4
:10125000012000B21949488016484079154909799A
:1012600040EA012000B21549888012488079C88080
:1012700000BF104840780F49097840EA012000B2C9
:101280000F4908800B48C0780A49897840EA012054
:1012900000B20B494880074840790649097940EA7D
:1012A000012000B20649888000BF00BF10BD0000C9
:1012B000006400401C0000209C0200200000002070
:1012C000100000207047000010B504462549206832
:1012D000884245D1244B254A01212046FFF70FFCC7
:1012E00022480068A0F20120E8B1032837D11E4847
:1012F00040781D49097840EA012000B21C49088065
:101300001948C0781849897840EA012000B2184984
:101310004880154840791449097940EA012000B213
:101320001349888000BF104840780F49097840EA87
:10133000012000B20F4908800B48C0780A4989781B
:1013400040EA012000B20B4948800748407906492D
:10135000097940EA012000B20649888000BF00BF39
:1013600010BD0000006800402C0000209C020020FE
:101370000800002010000020704770B5044694F863
:101380002000012822D1022084F820002068006873
:1013900020F001002168086000F06AFB05460DE0BE
:1013A00000F066FB401B0A2808D9606A40F4003050
:1013B0006062052084F82000012070BD206840682C
:1013C00000F001000028EBD16062F6E7606A40F4AB
:1013D000002060620120F0E7704770477047704757
:1013E00070477047704770B50446A56D00F040FB2C
:1013F000064694F83500022808D08020606500BFBA
:10140000002084F8340000BF012070BD206800680F
:1014100020F01600216808602068406920F08000F4
:1014200021684861206C08B9A06C28B12068006868
:1014300020F00800216808602068006820F00100A2
:101440002168086010E000F013FB801B05280BD911
:1014500020206065032084F8350000BF002084F858
:10146000340000BF0320D0E72068006800F00100CE
:101470000028E8D194F85C103F208840A860012043
:1014800084F8350000BF002084F8340000BF00BF9E
:10149000BBE7014691F83500022803D0802048655B
:1014A00001207047052081F835000868006820F0A9
:1014B00001000A6810600020F3E70000F8B5044658
:1014C000002000908C4800684FF41651B0FBF1F7F3
:1014D000A56D2E6894F85C1008208840304098B1C3
:1014E0002068006800F0040070B12068006820F0F7
:1014F00004002168086094F85C1008208840A86007
:10150000606D40F00100606594F85C100120884037
:10151000304068B12068406900F0800040B194F824
:101520005C1001208840A860606D40F0020060659A
:1015300094F85C1004208840304068B1206800684E
:1015400000F0020040B194F85C1004208840A860CC
:10155000606D40F00400606594F85C1010208840D5
:10156000304078B32068006800F0080050B394F869
:101570005C1010208840A8602068006800F480207B
:1015800080B12068006800F4002028B9206CC8B140
:101590002046216C884715E0A06C98B12046A16CCC
:1015A00088470FE02068006800F4807028B9206840
:1015B000006820F0080021680860206C10B1204607
:1015C000216C884794F85C10202088403040002827
:1015D00065D02068006800F0100000285FD094F803
:1015E0005C1020208840A86094F83500052828D198
:1015F0002068006820F016002168086020684069B3
:1016000020F0800021684861206C08B9A06C28B1E6
:101610002068006820F008002168086094F85C10D9
:101620003F208840A860012084F8350000BF0020DA
:1016300084F8340000BF206D10B12046216D88472A
:10164000F8BD2068006800F4802080B12068006840
:1016500000F4002028B9606C10B12046616C884706
:101660001DE0E06BD8B12046E16B884717E02068A9
:10167000006800F4807068B92068006820F01000ED
:1016800021680860012084F8350000BF002084F83C
:10169000340000BFE06B10B12046E16B8847606DFD
:1016A00038B3606D00F00100F0B1052084F835001A
:1016B0002068006820F001002168086000BF0098E1
:1016C000401C0090B84200D905E02068006800F096
:1016D00001000028F3D100BF012084F8350000BFCD
:1016E000002084F8340000BFE06C10B12046E16CAB
:1016F000884700BFA4E70000300200202DE9F04138
:101700000446002500F0B4F9074614B90120BDE8ED
:10171000F081606A00B100BF022084F8350000BF8C
:10172000002084F8340000BF2068006820F0010029
:10173000216808600AE000F09BF9C01B052805D964
:1017400020206065032084F83500E0E72068006809
:1017500000F001000028EED120680568214805400E
:10176000D4E901010843E16808432169084361693C
:101770000843A1690843E1690843216A0843054316
:10178000606A042803D1D4E90B01084305432068AB
:1017900005602068456925F00705606A0543606AB1
:1017A00004280DD1A06A0543E06A48B12046FEF73F
:1017B0009BFF28B140206065012084F83500A6E732
:1017C000206845612046FEF775FF064694F85C10D8
:1017D0003F208840B06000206065012084F835001B
:1017E000002094E73F8010F02DE9F04704460D46B5
:1017F00016461F464FF00008D4F8589000BF94F8E2
:101800003400012802D10220BDE8F087012084F8CD
:10181000340000BF94F83500012825D1022084F857
:101820003500002060653B46324629462046FEF7DB
:10183000B0FF94F85C103F208840C9F80800206889
:10184000006840F0160021680860206C28B120680C
:10185000006840F00800216808602068006840F0D7
:1018600001002168086006E000BF002084F8340011
:1018700000BF4FF002084046C6E70000F8B5024638
:101880000B460025002400200021D6E0012606FAA0
:1018900001F51E6806EA0504AC4274D11E7906F013
:1018A0000306012E04D01E7906F00306022E13D182
:1018B00090684F000326BE40B0434F00DE68BE4034
:1018C00030439060506801268E40B0431E79C6F3C5
:1018D00000168E40304350601E7906F00306032E3A
:1018E00009D0D0684F000326BE40B0434F009E6829
:1018F000BE403043D0601E7906F00306022E13D19D
:10190000CF0802F1200656F827004E07F70E0F26E3
:10191000BE40B0434F07FF0E1E69BE403043CF08A4
:1019200002F1200646F8270010684F000326BE404B
:10193000B0431E7906F003064F00BE4030431060EE
:101940005E6806F44036002E76D000BF0026009672
:101950003C4E366846F480463A4F3E603E46366816
:1019600006F48046009600BF00BF374E8F0856F839
:1019700027008E07370F0F26BE40B043334EB242CA
:1019800002D1002624E057E0314EB24201D10126B7
:101990001EE0304EB24201D1022619E02E4EB24274
:1019A00001D1032614E02D4EB24201D104260FE0EE
:1019B0002B4EB24201D105260AE02A4EB24201D195
:1019C000062605E0284EB24201D1072600E008268F
:1019D0008F073F0FBE4030431B4E8F0846F827004D
:1019E000224E3068A0435E6806F4801606B120439C
:1019F0001E4E3060361D3068A0435E6806F4001647
:101A000006B12043194E361D3060184E361F30681F
:101A1000A0435E6806F4003606B12043134E361F1D
:101A20003060361F3068A0435E6806F4803606B129
:101A300020430E4E083E3060491C1029FFF426AFAB
:101A4000F8BD000044380240083801400000024060
:101A50000004024000080240000C02400010024056
:101A60000014024000180240001C0240083C0140E3
:101A700001480068704700002402002070B5044649
:101A80000CB9012070BD4CF6CC402168086045F2CD
:101A9000555021680860D4E9001048602168A068AA
:101AA0008860FFF7E5FF05460DE0FFF7E1FF401B0B
:101AB00041F60101884206D92068C06800F00300A1
:101AC00008B10320DEE72068C06800F003000028AA
:101AD000EBD14AF6AA20216808600020D2E701462F
:101AE0004AF6AA200A681060002070470348006880
:101AF000034909780844014908607047240200201E
:101B00002C02002010B50D48006840F400700B490D
:101B100008600846006840F4806008600846006875
:101B200040F480700860032000F0DEF80F2000F021
:101B300007F800F055F8002010BD0000003C0240FE
:101B4000F0B587B004460026002700BF00200090B3
:101B50001E48006840F001001C4908600846006803
:101B600000F00100009000BF00BF01A902A800F032
:101B700091F900F0C7F946001548B6FBF0F0471E92
:101B800014481549086040F2E7311348C1604760C6
:101B9000002101618160816100F0C6FC054695B9B4
:101BA0000D4800F03FFD05466DB9192000F04AF8D8
:101BB000102C07D200222146192000F057F80748C0
:101BC000046000E00125284607B0F0BD443802401B
:101BD00040420F0000000140B4060020280200200F
:101BE00008B500BF002000901548006840F4804010
:101BF000134908600846006800F48040009000BF68
:101C000000BF00BF00200090081F006840F0805017
:101C1000091F08600846006800F08050009000BF6F
:101C200000BF00220F21901E00F020F800220521A5
:101C3000084600F01BF8052000F004F808BD00007D
:101C4000443802400146084600280DDB00BF00BFB3
:101C500000F01F0301229A4043099B0003F1E02397
:101C6000C3F8002100BF00BF00BF70472DE9F05F3F
:101C700080460D461646002702F004FC074639460A
:101C80002A46334601F00700C0F1070ABAF1040FF3
:101C900002D94FF0040A01E0C0F1070AD14600F171
:101CA000040ABAF1070F02D24FF0000A01E0A0F1D6
:101CB000030AD4464FF0010A0AFA09FAAAF1010A06
:101CC0000AEA020A0AFA0CFA4FF0010B0BFA0CFBB3
:101CD000ABF1010B0BEA030B4AEA0B042146404629
:101CE00002F0D8FBBDE8F09F00BF00F00702064BF2
:101CF00019684FF6FF031940044B0B4343EA0221D6
:101D0000014B196000BF70470CED00E00000FA05C0
:101D100070B504460D460CB9012070BD58480068E6
:101D200000F00700A84209D255490D700846006826
:101D300000F00700A84201D00120EEE7207800F073
:101D4000020002281DD1207800F00400042805D1EB
:101D50004C48006840F4E0504A490860207800F0A0
:101D60000800082805D14748006840F4604045490C
:101D700008604448006820F0F000A1680843414929
:101D80000860207800F00100A8B36068012807D13E
:101D90003C4808380068C0F34040B8B90120BCE7AF
:101DA0006068022802D06068032807D135480838E7
:101DB0000068C0F3406048B90120AEE731480838F8
:101DC0000068C0F3400008B90120A6E72D4800686C
:101DD00020F00300616808432A490860FFF748FEC5
:101DE000064609E0FFF744FE801B41F28831884235
:101DF00002D9032091E707E02248006800F00C00B8
:101E00006168B0EB810FEDD11D48006800F007005C
:101E1000A84209D91A490D700846006800F0070069
:101E2000A84201D0012078E7207800F004000428BF
:101E300007D11448006820F4E050E16808431149D4
:101E40000860207800F00800082808D10D480068D4
:101E500020F46040216940EAC1000A49086000F0AE
:101E600061F808490968C1F30311074A515CC84089
:101E70000649086006480068FFF762FE00204CE74C
:101E8000003C024008380240785C00083002002024
:101E9000280200200F2202600D4A126802F003029D
:101EA00042600B4A126802F0F0028260084A12682F
:101EB00002F4E052C260064A126802F46042D2089C
:101EC0000261044A126802F007020A6070470000CB
:101ED00008380240003C024001480068704700009A
:101EE0003002002000B5FFF7F7FF04490968C1F38D
:101EF0008221034A515CC84000BD000008380240FE
:101F0000885C000800B5FFF7E7FF04490968C1F3E2
:101F10004231034A515CC84000BD0000083802400D
:101F2000885C00082DE9F047002400250026A14622
:101F30002548006800F00C0020B1042805D00828CE
:101F40003AD105E0DFF8849039E0DFF8849036E09C
:101F50001D48001F006800F03F041B48001F006878
:101F600000F4800078B11A481749091F0968C1F3C5
:101F70008811A0FB01700146224600233846FEF777
:101F800081F905460EE011480F49091F0968C1F3A0
:101F90008811A0FB01700146224600233846FEF757
:101FA00071F905460848001F0068C0F30140401C55
:101FB0004600B5FBF6F902E0DFF8109000BF00BF65
:101FC0004846BDE8F0870000083802400024F400CD
:101FD00040787D01F8B504460CB90120F8BD2078A1
:101FE00000F00100002874D0F948006800F00C00EF
:101FF00004280DD0F648006800F00C00082813D122
:10200000F348001F006800F48000B0F5800F0BD18A
:10201000EF4808380068C0F34040002859D0606895
:10202000002856D10120D9E700BF6068B0F5803F95
:1020300008D1E7480838006840F48030E44908399E
:1020400008601EE06068B0F5A02F0DD1E0480838A8
:10205000006840F48020DE490839086008460068BE
:1020600040F4803008600CE0D9480838006820F45B
:102070008030D749083908600846006820F480207D
:10208000086000BF606890B1FFF7F2FC054606E00B
:10209000FFF7EEFC401B642801D903209EE7CC48E3
:1020A00008380068C0F340400028F1D011E0FFF785
:1020B000DFFC054606E0FFF7DBFC401B642801D986
:1020C00003208BE7C24808380068C0F3404000286E
:1020D000F1D1207800F0020002285FD1BC480068EE
:1020E00000F00C0058B1BA48006800F00C00082855
:1020F0001CD1B748001F006800F48000B0B9B44894
:1021000008380068C0F3400020B1E068012801D021
:10211000012063E7AE480838006820F0F800216924
:1021200040EAC100AA490839086037E0E06800B316
:102130000120A8490860FFF79BFC054606E0FFF771
:1021400097FC401B022801D9032047E7A048083824
:102150000068C0F340000028F1D09D4808380068AE
:1021600020F0F800216940EAC10099490839086067
:1021700014E0002097490860FFF77AFC054606E066
:10218000FFF776FC401B022801D9032026E7904880
:1021900008380068C0F340000028F1D1207800F032
:1021A000080008282CD16069A8B101208A4908607C
:1021B000FFF75EFC054606E0FFF75AFC401B0228CD
:1021C00001D903200AE782486C300068C0F3400060
:1021D0000028F1D014E000207F490860FFF748FC98
:1021E000054606E0FFF744FC401B022801D9032006
:1021F000F4E677486C300068C0F340000028F1D165
:10220000207800F00400042870D10027704838308E
:10221000006800F0805090B900BF002000906C482A
:102220003830006840F0805069493831086008460D
:10223000006800F08050009000BF00BF0127674891
:10224000006800F48070B0B96448006840F48070A1
:1022500062490860FFF70CFC054606E0FFF708FC42
:10226000401B022801D90320B8E65C48006800F44E
:1022700080700028F2D000BFA068012808D154481F
:102280006830006840F001005149683108601DE085
:10229000A06805280DD14E486830006840F0040061
:1022A0004B49683108600846006840F0010008604A
:1022B0000CE047486830006820F00100444968316C
:1022C00008600846006820F00400086000BFA068AD
:1022D000A8B1FFF7CDFB054609E0FFF7C9FB401B9E
:1022E00041F28831884202D9032077E626E0384857
:1022F00068300068C0F340000028EED013E0FFF71C
:10230000B7FB054608E0FFF7B3FB401B41F28831FD
:10231000884201D9032061E62D4868300068C0F387
:1023200040000028EFD1012F07D12948383000683C
:1023300020F0805026493831086000BFA06900288D
:1023400045D02348006800F00C0008285DD0A06943
:10235000022845D100201F490866FFF789FB054682
:1023600006E0FFF785FB401B022801D9032035E674
:10237000174808380068C0F340600028F1D1D4E95C
:1023800007010843616A40EA81110122A06AC2EB99
:10239000500041EA00412C20005D41EA00600C49F8
:1023A000091F086001200B490866FFF761FB05461D
:1023B00006E0FFF75DFB401B022801D903200DE674
:1023C000034808380068C0F340600028F1D049E0B5
:1023D0000838024000004742800E4742007000402B
:1023E000002021490866FFF743FB054606E0FFF79A
:1023F0003FFB401B022801D90320EFE51B48006882
:10240000C0F340600028F2D12CE0A069012800D17F
:10241000E4E51648001D0668A069012820D006F4EE
:102420008001E06981421BD106F03F01206A8142B0
:1024300016D147F6C0703040616AB0EB811F0FD1F2
:1024400006F440310122A06AC2EB5000B1EB004F0C
:1024500006D106F070612C20005DB1EB006F01D059
:102460000120BBE50020B9E50000474200380240EA
:102470007047704730B502460B4600BF92F83C00EB
:10248000012801D1022030BD012082F83C0000BFAC
:10249000022082F83D00106844681068816824F0CA
:1024A00070041868044310684460184D1068A8420E
:1024B0001BD01068B0F1804F17D0154D1068A8429E
:1024C00013D0144D1068A8420FD0134D1068A842C5
:1024D0000BD0124D1068A84207D0114D1068A842C9
:1024E00003D0104D1068A84205D121F08001586832
:1024F000014310688160012082F83D0000BF002088
:1025000082F83C0000BF00BFBDE7000000000140B2
:102510000004004000080040000C0040000401409E
:10252000004001400018004010B504460CB90120DD
:1025300010BD94F83D0028B9002084F83C002046E6
:1025400000F026F8022084F83D00211D206801F0EB
:10255000A9FA012084F8460000BF84F83E0001215A
:102560003F200155402001554120015500BF00BFCB
:10257000012084F8420043200155442001554520A4
:10258000015500BF012084F83D000020D0E7000085
:1025900010B586B00446142101A8FDF7BDFE1E4902
:1025A0002068884236D100BF002000901B48006898
:1025B00040F00200194908600846006800F0020077
:1025C000009000BF00BF00BF0020009013481038EB
:1025D000006840F0010011491039086008460068A1
:1025E00000F00100009000BF00BF402001900220D9
:1025F00002900020039004900220059001A9084851
:10260000FFF73CF9002205211D20FFF72FFB1D20BD
:10261000FFF718FB06B010BD000400404038024030
:1026200000000240014691F83D00012801D0012040
:102630007047022081F83D000868C06840F0010042
:102640000B68D8601A4B086898421BD00868B0F134
:10265000804F17D0174B0868984213D0164B086864
:1026600098420FD0154B086898420BD0144B08685D
:10267000984207D0134B0868984203D0124B086861
:1026800098420CD10868806800F00702062A0CD036
:102690000868006840F001000B68186005E00868F1
:1026A000006840F001000B6818600020C0E70000DF
:1026B000000001400004004000080040000C004001
:1026C0000004014000400140001800402DE9F041A5
:1026D00004460D46002700BF94F83C00012802D1B3
:1026E0000220BDE8F081012084F83C0000BF0220F8
:1026F00084F83D002068866826F0770626F47F4639
:10270000206886602868502833D00CDC202850D000
:1027100004DC00284BD0102851D149E0302849D0A2
:1027200040284CD139E060282DD0702807D0B0F572
:10273000805F03D0B0F5005F41D10DE041E0D5E905
:1027400002136A68206801F01DFA2068866846F066
:1027500077062068866034E0D5E902136A6820684D
:1027600001F010FA2068806840F480402168886099
:1027700027E0EA686968206801F018FA50212068AB
:1027800001F00BFA1DE0EA686968206801F06AFA56
:102790006021206801F001FA13E0EA6869682068A6
:1027A00001F004FA4021206801F0F7F909E000BFC8
:1027B00000BF00BF2968206801F0EFF901E00127A0
:1027C00000BF00BF012084F83D0000BF002084F856
:1027D0003C0000BF384684E770472DE9F0410446CD
:1027E0000D461646002700BF94F83C00012802D190
:1027F0000220BDE8F081012084F83C0000BF96B9BA
:10280000EB68D5E90012206801F0E4F920688069DE
:1028100020F00C002168886120688069A96808435D
:102820002168886141E0042E13D1EB68D5E90012DC
:10283000206801F02BFA2068806920F4406021684C
:10284000886120688069A96840EA01202168886160
:102850002BE0082E12D1EB68D5E90012206801F0B8
:1028600032FA2068C06920F00C002168C861206835
:10287000C069A96808432168C86116E00C2E13D10D
:10288000EB68D5E90012206801F039FA2068C069C8
:1028900020F440602168C8612068C069A96840EAE6
:1028A00001202168C86100E0012700BF002084F8F2
:1028B0003C0000BF38469CE710B504460CB9012027
:1028C00010BD94F83D0028B9002084F83C00204653
:1028D00000F025F8022084F83D00211D206801F059
:1028E000E1F8012084F8460000BF84F83E00012191
:1028F0003F200155402001554120015500BF00BF38
:10290000012084F842004320015544200155452010
:10291000015500BF012084F83D000020D0E770473A
:1029200070B504462068C5682068066906F0020094
:10293000022819D105F00200022815D1401F216894
:102940000861012020772068806900F0030018B139
:102950002046FFF741FF05E0204600F097F82046AB
:1029600000F095F80020207706F00400042819D123
:1029700005F00400042815D1C04321680861022035
:1029800020772068806900F4407018B12046FFF776
:1029900023FF05E0204600F079F8204600F077F8A4
:1029A0000020207706F00800082819D105F008005B
:1029B000082815D1C04321680861042020772068C9
:1029C000C06900F0030018B12046FFF705FF05E0DD
:1029D000204600F05BF8204600F059F800202077F0
:1029E00006F01000102819D105F01000102815D19C
:1029F000C04321680861082020772068C06900F47E
:102A0000407018B12046FFF7E7FE05E0204600F0D1
:102A10003DF8204600F03BF80020207706F001004A
:102A200048B105F0010030B16FF001002168086184
:102A3000204600F02DF806F08000802809D105F02E
:102A40008000802805D1C043216808612046FFF737
:102A50000FFD06F04000402809D105F04000402855
:102A600005D1C04321680861204600F01DF806F03A
:102A70002000202809D105F02000202805D1C043DE
:102A8000216808612046FFF7F4FC70BD704770476D
:102A900010B5044603492068884201D1FFF726F8A3
:102AA00010BD0000000001407047F8B504460D4617
:102AB000164694F8420020282DD105B10EB9012008
:102AC000F8BD01202063002060633246294620467D
:102AD00001F0BEFB0746206B012819D100BF002082
:102AE000009020680068009020684068009000BF57
:102AF00000BF00BF00BF21680C3151E8001F41F04A
:102B0000100021680C3141E80002002AF3D100E0F6
:102B100001273846D4E70220D2E7000070B504460A
:102B20000D460949206888420DD1122D0BD1074866
:102B3000FDF75CFDFEF79CFF054908601222034982
:102B40000448FFF7B2FF70BD00100140C40200202E
:102B5000400000200C06002010B504461222024955
:102B60000248FFF7A2FF10BDC40200200C0600209F
:102B70002DE9F84F0446206805682068C66820687B
:102B800047694FF00009CA4605F00F09B9F1000F77
:102B90000AD105F0200038B106F0200020B120460F
:102BA00001F0C1F9BDE8F88FB9F1000F7CD007F052
:102BB000010018B906F49070002875D005F00100E6
:102BC00030B106F4807018B1606C40F001006064B0
:102BD00005F0040030B107F0010018B1606C40F05E
:102BE0000200606405F0020030B107F0010018B186
:102BF000606C40F00400606405F0080048B106F025
:102C0000200010B907F0010018B1606C40F0080016
:102C10006064606C002846D005F0200028B106F002
:102C2000200010B1204601F07EF920684069C0F311
:102C3000801A606C00F0080010B9BAF1000F2DD0B6
:102C4000204601F017F92068406900F04000402854
:102C500020D100BF00BF2168143151E8001F21F0CE
:102C600040002168143141E80002002AF3D100BF7E
:102C7000E06B50B17F48E16B0865E06BFEF709FC43
:102C800088B1E06B016D88470DE02046FFF764FFD7
:102C900009E009E02046FFF75FFF04E02046FFF768
:102CA0005BFF002060647DE7206B012878D105F090
:102CB0001000002874D006F010000028FAD000BFE1
:102CC0000020009020680068009020684068009014
:102CD00000BF00BF2068406900F04000402870D16C
:102CE000E06B006840681FFA80F8B8F1000F58D018
:102CF000A08D404555DDA4F82E80E06BC069B0F58D
:102D0000807F43D000BF00BF21680C3151E8001F15
:102D100021F4807021680C3141E80002002AF3D1CF
:102D200000BF00BF00BF2168143151E8001F21F02F
:102D300001002168143141E80002002AF3D100BFEC
:102D400000BF00BF2168143151E8001F21F040008E
:102D50002168143141E80002002AF3D100BF20208D
:102D600084F842000020206300BF00BF21680C31BE
:102D700051E8001F21F0100021680C3141E80002E9
:102D8000002AF3D100BFE06BFEF72DFB0220606349
:102D9000A08DE28D801A81B22046FFF7BFFE0EE0C3
:102DA00052E0A08D40450AD1E06BC069B0F5807F4C
:102DB00005D102206063A18D2046FFF7AFFEF1E64A
:102DC000FFE7A08DE18D401A1FFA80F8E08DD0B3A7
:102DD000B8F1000F37D000BF00BF21680C3151E8B7
:102DE000001F21F4907021680C3141E80002002A94
:102DF000F3D100BF00BF00BF2168143151E8001FAC
:102E000021F001002168143141E80002002AF3D1C9
:102E100000BF202084F842000020206300BF00BFD4
:102E200021680C3151E8001F21F0100021680C319D
:102E300041E80002002AF3D100BF0220606341464E
:102E40002046FFF76BFEADE605F0800030B106F0DE
:102E5000800018B1204601F067FAA3E605F04000B3
:102E600030B106F0400018B1204601F039F899E67B
:102E700000BF97E63B3D000810B504460CB90120A1
:102E800010BDA06900B100E000BF94F8410028B96E
:102E9000002084F84000204600F02AF8242084F81E
:102EA00041002068C06820F400502168C8602046B6
:102EB00001F0B8F82068006920F4904021680861AA
:102EC0002068406920F02A00216848612068C068B5
:102ED00040F400502168C86000206064202084F81D
:102EE000410084F842000020606300BFC8E7000092
:102EF00010B586B00446142101A8FDF70DFA2F493C
:102F00002068884258D100BF002000902C480068FB
:102F100040F010002A4908600846006800F01000E0
:102F2000009000BF00BF00BF00200090244814386C
:102F3000006840F001002249143908600846006822
:102F400000F00100009000BF00BF4FF4C06001908E
:102F50000220029000200390032004900720059097
:102F600001A91848FEF78AFC1748184908604FF075
:102F700000604860002115488160C1604FF48061A5
:102F80000161002141618161C1614FF44031016201
:102F900000214162FEF7B2FB08B1FDF711FC00BF52
:102FA0000A48E063846300BF002205212520FEF764
:102FB0005DFE2520FEF746FE06B010BD0010014064
:102FC0004438024000000240886402405406002059
:102FD00070477047704700BFFEE70000024A10804C
:102FE000024A11807047000046000020480000207F
:102FF00010B50E480E4908600320486000210C48B7
:103000008160C1604FF4C02101614FF4A0014161B2
:103010000021017641768176C17601774177FDF70F
:103020005FFF08B1FDF7CCFB10BD0000006400405D
:103030006805002010B50E480E490860032048605E
:1030400000210C488160C1604FF4C02101614FF440
:10305000A00141610021017641768176C176017738
:103060004177FDF73DFF08B1FDF7AAFB10BD000059
:10307000006800409005002008B500BF00200090C7
:103080000A48006840F48000084908600846006863
:1030900000F48000009000BF00BF00220521442002
:1030A000FEF7E4FD4420FEF7CDFD08BD30380240B8
:1030B00000B59DB01C22184916A8FDF714F900218F
:1030C00016A801F097FB154908601C2212491C3113
:1030D0000FA8FDF708F900210FA801F08BFB10499C
:1030E00008601C220C49383108A8FDF7FCF80021C3
:1030F00008A801F07FFB0B4908601C2206495431E7
:1031000001A8FDF7F0F8002101A801F073FB0649C2
:1031100008601DB000BD0000005C00081002002027
:1031200014020020180200201C02002008B500BF75
:10313000002000901D48006840F080001B49086096
:103140000846006800F08000009000BF00BF00BF8C
:10315000002000900846006840F001000860084622
:10316000006800F00100009000BF00BF00BF002019
:1031700000900846006840F00200086008460068B9
:1031800000F00200009000BF00BF00BF00200090D0
:103190000846006840F0080008600846006800F033
:1031A0000800009000BF00BF08BD0000303802409A
:1031B00010B50748074908600320486040F2E7312E
:1031C00004488160FEF75AFC08B1FDF7F9FA10BD1A
:1031D00000300040B805002000B58BB000200790FB
:1031E000089009900A900590069001900290039033
:1031F00004901F481F49086040F247304860002192
:103200001C4881604FF6FF71C1600021016181613E
:10321000FFF78AF908B1FDF7D3FA4FF48050079011
:1032200007A91448FFF752FA08B1FDF7C9FA114887
:10323000FFF742FB08B1FDF7C3FA002005900690A6
:1032400005A90C48FFF716F908B1FDF7B9FA0020F7
:10325000019001200290002003900490002201A917
:103260000448FFF7BAFA08B1FDF7AAFA0BB000BD9F
:1032700000040040C405002010B50C480C4908604B
:103280000C4848604FF48051094881600021C160BA
:103290004FF4806101610421416100218161C161BC
:1032A000FFF7EAFD08B1FDF78BFA10BD00100140F1
:1032B0000C060020A086010000BFFEE700BFFEE76D
:1032C00010B52DED068B0446F0EE408A94ED050A0C
:1032D00030EE680AB0EE408A53480088012818D1C1
:1032E00018EE100AFDF723F841EC1A0BB0EE4A0A6B
:1032F000F0EE6A0A01F0E2F8B0EE409AF0EE609A61
:103300009FED4A0B53EC102B51EC190BFDF722F8F3
:103310001BD34548008868BB18EE100AFDF707F874
:1033200041EC1A0BB0EE4A0AF0EE6A0A01F0C6F858
:10333000B0EE409AF0EE609A9FED3E0B53EC102BEE
:1033400051EC190BFDF706F814D29FED3C0AB0EED4
:10335000408A9FED3A0A84ED070A9FED380A84ED12
:10336000080A9FED360A84ED0A0A94ED0B0ABDECBB
:10337000068B10BD94ED082A38EE422AF0EE420A80
:10338000D4ED082AB0EE003AB0EE482A03EE622AE5
:10339000D4ED0A2A32EE222AB0EE421A94ED072A20
:1033A000DFED272A22EE222ADFED262A02EEA02ACE
:1033B00084ED072A94ED002A22EE202AD4ED012A7A
:1033C00002EE882AD4ED022A02EE812AF0EE421A99
:1033D00094ED0B2A32EE212AB0EE420A94ED092A2E
:1033E000B4EEC02AF1EE10FA04D294ED092AB0EE40
:1033F000420A0EE094ED092AB1EE422AB4EEC02A48
:10340000F1EE10FA05DD94ED092AB1EE422AB0EE94
:10341000420A94ED082A84ED0A2A84ED088A84ED94
:103420000B0A00BFA3E70000B40100200000000069
:10343000000008400000000000001C4000000000E8
:103440003333333F9A99993E10B52DED088B0446DE
:10345000B0EE409A94ED050A30EE490AB0EE408A8B
:1034600077480088012818D118EE100AFCF75FFF92
:1034700041EC1B0BB0EE4B0AF0EE6B0A01F01EF8AC
:10348000B0EE40AAF0EE60AA9FED6E0B53EC102B4D
:1034900051EC1A0BFCF75EFF1BD36948008828BB70
:1034A00018EE100AFCF743FF41EC1B0BB0EE4B0A81
:1034B000F0EE6B0A01F002F8B0EE40AAF0EE60AA5E
:1034C0009FED620B53EC102B51EC1A0BFCF742FFF3
:1034D0000CD29FED600AB0EE408A94ED060ADFED53
:1034E0005E0A20EE200A84ED060A77E0D4ED082A71
:1034F00078EE622AB0EE621AD4ED072A9FED573AB1
:1035000062EE832A9FED563A43EE012AC4ED072A64
:1035100084ED088AD4ED002A62EE882AF0EE621A61
:10352000D4ED022A94ED073A62EE832AB0EE622AC5
:1035300071EE822AF0EE620A0120D4ED092AF4EE3F
:10354000E02AF1EE10FA06D8B5EEC08AF1EE10FAD4
:1035500001DD00200EE0D4ED092AF1EE622AF4EE3E
:10356000E02AF1EE10FA05DBB5EEC08AF1EE10FAB2
:1035700000D2002040B1D4ED062A94ED0C3A48EE7A
:10358000032AC4ED062A0BE0D4ED062A94ED0C3A8A
:1035900023EE083ADFED333A43EE232AC4ED062A40
:1035A000D4ED092A94ED013A82EE830AD4ED062A7D
:1035B000F4EEC02AF1EE10FA02DD84ED060A0CE00A
:1035C000D4ED062AB1EE403AF4EEC32AF1EE10FA39
:1035D00003D2F1EE402AC4ED062A00BF94ED010AA1
:1035E000D4ED060A20EE200AD4ED000A00EE880A87
:1035F000D4ED020A94ED071AF0EE408A40EE818A7B
:1036000094ED090AB4EEE80AF1EE10FA04D294ED52
:10361000090AF0EE408A0EE094ED090AB1EE400A84
:10362000B4EEE80AF1EE10FA05DD94ED090AB1EE08
:10363000400AF0EE408AB0EE680ABDEC088B10BD7F
:10364000B40100200000000000000840000000005D
:1036500000001C4000000000A4707D3F3333333F66
:103660009A99993ECDCC4C3E10B52DED088B044671
:10367000F0EE408A94ED050A84ED0E0AD4ED0C1AA2
:10368000B0EE611AD4ED031AF0EE610AD4ED041A1B
:10369000B0EE610A04F13800FDF796F8B0EE40BADA
:1036A00094ED050A30EE680A664880ED000A664827
:1036B0000088012818D163480068FCF738FE41EC07
:1036C0001A0BB0EE4A0AF0EE6A0A00F0F7FEB0EE0E
:1036D000409AF0EE609A9FED5D0B53EC102B51EC8D
:1036E000190BFCF737FE1BD35748008830BB5548F1
:1036F0000068FCF71CFE41EC1A0BB0EE4A0AF0EE33
:103700006A0A00F0DBFEB0EE409AF0EE609A9FEDA0
:10371000510B53EC102B51EC190BFCF71BFE0DD287
:103720009FED4E0A474880ED000A94ED060ADFED52
:103730004C0A20EE200A84ED060A37E094ED060AD2
:103740004048D0ED000A30EE200A84ED060A94EDE0
:10375000090A94ED011AC0EE010A94ED060AF4EE8E
:10376000C00AF1EE10FA08D294ED090AD4ED010A6C
:1037700080EE201A84ED061A18E094ED090AB1EEE5
:10378000400A94ED011AC0EE010A94ED060AF4EE27
:10379000C00AF1EE10FA09DD94ED090AB1EE400A13
:1037A000D4ED010A80EE201A84ED061A94ED070A82
:1037B000DFED2C0A20EE200AD4ED080A214890ED16
:1037C000001A71EE600A9FED281A01EE200A84EDBE
:1037D000070A90ED000A84ED080A94ED010AD4ED81
:1037E000060A20EE200AD4ED000A90ED001A00EE41
:1037F000810AD4ED020A94ED071AB0EE408A00EE79
:10380000818A94ED090AB4EEC80AF1EE10FA04D2E6
:1038100094ED090AB0EE408A0EE094ED090AB1EE8B
:10382000400AB4EEC80AF1EE10FA05DD94ED090A7B
:10383000B1EE400AB0EE408AB0EE480ABDEC088B0B
:1038400010BD0000F8010020B401002000000000BD
:10385000000008400000000000001C4000000000C4
:10386000A4707D3F3333333F9A99993E704700BF30
:10387000002000F09BFD0A2000F0A1FFF8E7000007
:1038800070B5FEF7F5F804460B480068844203D390
:1038900009480068251A04E007480068C0F1FF30B5
:1038A0000519642D03D900200449087002E00120A5
:1038B0000249087070BD0000400000204400002054
:1038C00000BF01F055FB01F0C1FA012000F06EFDD0
:1038D0000A2000F074FFF4E700BF01F001FB4FF491
:1038E000BE714FF49670FFF779FB01F0EDFB0220FB
:1038F00000F05CFD0A2000F062FFEEE700BFFFF77A
:10390000BFFF0A2000F05BFFF9E7000034E000F0A1
:1039100067FF04460125002024E000EB8002174BDE
:1039200003EB8202127C02B91BE000EB8002134B16
:1039300003EB82029268A11AB1F1004F07D300EBAA
:10394000800203EB82029268C2F1FF32111900EB90
:1039500080020A4B03EB8202D2688A4200D2002521
:1039600000BF401C0328D8DB0DB100F017FD4FF459
:10397000FA7000F024FF00BFC9E70000D802002061
:1039800010B500BF502080F31188BFF34F8FBFF3F5
:103990006F8F00BF02F000F818B14FF0805004495B
:1039A000086000BF002080F3118800BF10BD000038
:1039B00004ED00E000B593B0302107A8FCF7ACFCA3
:1039C000142102A8FCF7A8FC00BF002001902648A3
:1039D000006840F08050244908600846006800F004
:1039E0008050019000BF00BF00BF002001901F4821
:1039F000006840F480401D4908600846006800F4F3
:103A00008040019000BF00BF092007904FF4803034
:103A1000089001200C9002200D9041050E91192173
:103A20000F914FF4A871109102211191042112916C
:103A300007A8FEF7CFFA08B1FCF7C2FE0F200290EC
:103A400002200390002004904FF4A05005904FF402
:103A500080500690052102A8FEF75AF908B1FCF73C
:103A6000AFFE13B000BD00004038024000700040BF
:103A70000348006840F47000014908607047000086
:103A800088ED00E010B50248FEF74AFF10BD0000C7
:103A9000B406002010B50248FEF742FF10BD00003A
:103AA000C405002010B502682B4B98420ED0B0F12F
:103AB000804F0BD0294B984208D0294B984205D013
:103AC000284B984202D0284B984203D122F0700232
:103AD0004B681A43204B984220D0B0F1804F1DD044
:103AE0001E4B98421AD01E4B984217D01D4B98423D
:103AF00014D01D4B984211D01C4B98420ED01C4B39
:103B000098420BD01B4B984208D01B4B984205D0D3
:103B10001A4B984202D01A4B984203D122F44072B9
:103B2000CB681A4322F080034C6943EA04028B6895
:103B3000C3620B688362084B984202D00A4B9842DA
:103B400001D10B690363036843F00403036001239D
:103B50004361026010BD000000000140000400400D
:103B600000080040000C00400004014000400140FB
:103B7000004401400048014000180040001C004083
:103B80000020004030B50C46816821F47F4142EAB4
:103B9000032525432943816030BD0A46816821F011
:103BA000700142F0070319438160704730B50B463E
:103BB0001446026A056A25F001050562816921F053
:103BC000F00141EA041122F00A021A438161026203
:103BD00030BD000070B50C461546026A066A26F034
:103BE000010606628169184EB04214D0B0F1804FD0
:103BF00011D0164EB0420ED0154EB0420BD0154E1D
:103C0000B04208D0144EB04205D0144EB04202D09B
:103C1000134EB04201D1012600E000261EB121F072
:103C20000301294301E041F0010121F0F001F026F8
:103C300006EA0316314322F00A0204F00A06324370
:103C40008161026270BD000000000140000400407C
:103C500000080040000C004000040140004001400A
:103C60000018004030B50B461446026A056A25F07C
:103C700010050562816921F4704141EA043122F0A6
:103C8000A00242EA03128161026230BD70B50C46A7
:103C90001546026A066A26F010060662816921F45A
:103CA000407141EA052121F470414FF4704606EA63
:103CB0000336314322F0A002A02606EA041632435E
:103CC0008161026270BD70B50C461546026A066AD3
:103CD00026F480760662C16921F00301294321F0B0
:103CE000F001F02606EA0316314322F420624FF475
:103CF000206606EA04263243C161026270BD70B5D7
:103D00000C461546026A066A26F480560662C169A8
:103D100021F4407141EA052121F470414FF47046CD
:103D200006EA0336314322F420424FF4204606EAE5
:103D300004363243C161026270BD70B50446A56BA2
:103D40000020E8852846FEF707FF70BD70B50646DF
:103D50000025B46B20684069C0F3C01594F8410099
:103D6000212805D125B10020E084204600F0C8F8C4
:103D700020684069C0F3801594F84200222805D1DC
:103D800025B10020E085204600F074F8606C40F01A
:103D9000100060642046FEF7DFFE70BD70B505467A
:103DA000AC6B2868006800F48070002842D1E08580
:103DB00000BF00BF21680C3151E8001F21F4807062
:103DC00021680C3141E80002002AF3D100BF00BF96
:103DD00000BF2168143151E8001F21F00100216863
:103DE000143141E80002002AF3D100BF00BF00BF38
:103DF0002168143151E8001F21F04000216814317E
:103E000041E80002002AF3D100BF202084F84200DC
:103E1000206B01280ED100BF00BF21680C3151E892
:103E2000001F21F0100021680C3141E80002002A37
:103E3000F3D100BF00206063206B012804D1A18D65
:103E40002046FEF76BFE02E02046FFF7C1F870BD8A
:103E500070B50546AC6B01206063206B012805D16D
:103E6000A08D41082046FEF759FE02E02046FFF7EC
:103E7000B0F870BD00BF00BF02680C3252E8002FDE
:103E800022F4907102680C3242E80013002BF3D147
:103E900000BF00BF00BF0268143252E8002F22F0BA
:103EA00001010268143242E80013002BF3D100BF75
:103EB000016B01290ED100BF00BF02680C3252E82D
:103EC000002F22F0100102680C3242E80013002B90
:103ED000F3D100BF202180F8421000210163704718
:103EE00010B504462068C06820F040002168C86012
:103EF000202084F841002046FFF76CF8002010BD18
:103F000000BF00BF02680C3252E8002F22F0C0014F
:103F100002680C3242E80013002BF3D100BF2021CD
:103F200080F841107047F8B504460025002694F843
:103F30004200222873D1A068B0F5805F0BD12069C0
:103F400048B9A66A20684068C0F308003080A06ABB
:103F5000801CA06214E0A56AA068B0F5805F03D061
:103F6000A06828B9206918B920684068287004E062
:103F70002068406800F07F002870A06A401CA062A2
:103F8000E08D401E80B2E085002846D12068C068E0
:103F900020F020002168C8602068C06820F480708C
:103FA0002168C8602068406920F0010021684861EC
:103FB000202084F8420000206063206B012826D175
:103FC0000020206300BF00BF21680C3151E8001FB2
:103FD00021F0100021680C3141E80002002AF3D1E1
:103FE00000BF2068006800F0100010280AD100BF50
:103FF00000200090206800680090206840680090D1
:1040000000BF00BFA18D2046FEF788FD02E02046DC
:10401000FEF7DEFF0020F8BD01E00020FBE70220F4
:10402000F9E700002DE9F84F04462068006920F404
:104030004050E1680843216808612169A06808438D
:1040400061690843E169084300902068C06849F24B
:104050000C618843009908432168C8602068406962
:1040600020F44070A16908432168486176492068BE
:10407000884203D075492068884203D1FDF742FF8A
:10408000814602E0FDF72EFF8146E069B0F5004F62
:104090006CD102206168A0FB015003461920A9FBE6
:1040A000007001462A463846FCF7ECF86421B0FB64
:1040B000F1F04FEA001A02206168A0FB01510B46A3
:1040C0001920A9FB00712A463846FCF7DBF8834625
:1040D00002206168A0FB015003461920A9FB007172
:1040E0002A463846FCF7CEF86421B0FBF1F000EB2D
:1040F000C00101EB0010ABEB8000322101EBC000EE
:104100006421B0FBF1F000F0F8000AEB400A022055
:104110006168A0FB015003461920A9FB007001460D
:104120002A463846FCF7AEF8834602206168A0FBB9
:10413000015003461920A9FB00712A463846FCF7B6
:10414000A1F86421B0FBF1F000EBC00101EB00101D
:10415000ABEB8000322101EBC0006421B0FBF1F039
:1041600000F007005044216888606AE0042061681C
:10417000A0FB015003461920A9FB007001462A4606
:104180003846FCF77FF8824604206168A0FB0150A6
:1041900003461920A9FB007001462A463846FCF761
:1041A00071F86421B0FBF1F000EBC00101EB0010ED
:1041B000AAEB8000322101EB00106421B0FBF1F08A
:1041C00000F0F00A04206168A0FB0170034619208A
:1041D000A9FB00513A462846FCF754F86421B0FB8D
:1041E000F1F00AEB001A04206168A0FB01510B46B4
:1041F0001920A9FB00712A463846FCF743F883468C
:1042000004206168A0FB015003461920A9FB00703F
:1042100001462A463846FCF735F86421B0FBF1F038
:1042200000EBC00101EB0010ABEB8000322101EB91
:1042300000106421B0FBF1F000F00F005044216841
:104240008860BDE8F88F00000010014000140140B4
:1042500077B581B0044615460298A062A585002076
:104260006064222084F842002C48E16BC8632C482B
:10427000E16B08642B48E16BC8640020E16B0865C2
:1042800002AE32682368191D2B46E06BFDF7ACFACD
:1042900038B110206064202084F84200012004B06E
:1042A00070BD00BF0020009020680068009020686A
:1042B0004068009000BF00BF206970B100BF00BF20
:1042C00021680C3151E8001F41F4807021680C31E5
:1042D00041E80002002AF3D100BF00BF00BF2168FF
:1042E000143151E8001F41F001002168143141E808
:1042F0000002002AF3D100BF00BF00BF21681431C3
:1043000051E8001F41F040002168143141E80002EB
:10431000002AF3D100BF0020C1E700009D3D000846
:10432000513E00084D3D0008014691F8410021280A
:1043300028D18868B0F5805F0BD1086948B90A6A4E
:104340001088C0F308000B685860086A801C086277
:1043500005E00B6A581C086218780B685860C88C16
:10436000401E80B2C88458B90868C06820F0800038
:104370000B68D8600868C06840F040000B68D860DF
:10438000002070470220FCE710B50248FEF7F0FB62
:1043900010BD00000C06002000BFFEE710B502486B
:1043A000FDF79DFB10BD0000B805002010B50446C8
:1043B000032C0EDA04EB8400064901EB8000007C3C
:1043C00038B100F00DFA04EB8401024A02EB8101DE
:1043D000886010BDD802002010B588B03C2121486B
:1043E000FBF79AFF00201F4908701FA048604FF498
:1043F000FA60C8600120087408751DA11948816120
:104400004FF4FA610162012180F82410022015495D
:1044100081F8280018A11348C1624FF4FA61416382
:10442000012180F8381000240FE004EB84000D49CE
:1044300001EB8000007C38B100F0D2F904EB84017C
:10444000084A02EB81018860641C032CEDDB1C220E
:104450000B4901A8FBF747FF002101A800F0CAF9AA
:1044600008B010BDD802002044656661756C740008
:104470007461736B320000007461736B3300000071
:10448000E45B000802480068C0F3022070470000A7
:104490000CED00E010B5002804DB0A07130E054AF6
:1044A000135406E00A07140E034A00F00F031B1F03
:1044B000D45410BD00E400E018ED00E02DED020B37
:1044C000019820F0004001909DED000B02B0704774
:1044D00002E008C8121F08C1002AFAD170477047CD
:1044E000002001E001C1121F002AFBD1704700002B
:1044F00000EE100AB8EEC00ADFED1C1A20EE210A09
:10450000DFED1B1A80EE212AB0EE421A194991ED17
:10451000000A31EE400AF0EE400A9FED170AF4EE71
:10452000C00AF1EE10FA06DD9FED100A30EEC00A67
:10453000F0EE400A0CE09FED110AF4EEC00AF1EE35
:1045400010FA05D29FED090A30EE800AF0EE400A1B
:10455000084981ED001A0A4991ED000A30EE200A5F
:1045600081ED000A91ED000A704700000000B4439D
:10457000000000460402002000003443000034C361
:104580000002002070B52DED068BB0EE408AF0EEF3
:10459000608AB0EE419AF0EE619AB0EE42AAFDF761
:1045A00067FA0446B0EEE80AF2EE040AB4EEE00A56
:1045B000F1EE10FA13D2B0EEC90ADFED420AB4EE02
:1045C000E00AF1EE10FA0ADDB0EEC80ADFED3E0AAD
:1045D000B4EEE00AF1EE10FA01DD012000E0002067
:1045E00005463A48007830B101282AD0022836D052
:1045F000032861D14FE005B33548007820B935482C
:10460000046001203249087032480068201A64288A
:1046100016D93148007831490978884210DA0120EA
:104620002A4908702E4804602E4880ED008A2A48E6
:104630000078401C2849087002E0002024490870D6
:104640003BE002202149087025480460B1EE480A89
:10465000DFED250A20EE200ABDEC068B70BD204858
:104660000068201AC82809D21E4890ED000AB1EE51
:10467000400AF6EE000A20EE200AEDE70320134977
:10468000087017480460174890ED000ADFED170A1C
:1046900020EE200AE0E712480068201AC82807D256
:1046A000104890ED000ADFED110A20EE200AD3E752
:1046B00000200649087000BF00BF00BFB0EE480AE6
:1046C000CAE7000000401C4600004843D601002015
:1046D0000C02002008020020F0010020F10100205F
:1046E000D8010020E4010020CDCCCC3E9A99993E1F
:1046F000F0EE401AF4EEE01AF1EE10FA02D2B0EE4B
:10470000600A7047F4EEC11AF1EE10FA02DDB0EE65
:10471000410AF6E7B0EE610AF3E700BFEFF3058068
:1047200008B1012070470020FCE70000FDF7EAF91E
:10473000FFF740F9FEF7FAFCFEF79EFCFEF758FC87
:10474000FEF778FCFEF748FDFEF732FDFEF794FD1C
:1047500002211248FCF788F81048FBF7ABFE0F481F
:10476000FCF70BFE10210E48FCF77EF80C48FBF717
:10477000A1FE0B48FCF701FE12220A490A48FEF787
:1047800094F9FDF775F909490860FFF725FEFEF772
:104790008FFC00F020F800BFFEE700006805002055
:1047A00090050020C40200200C06002040000020DC
:1047B00001460020842901D0CA1C1044704770B5FE
:1047C000044625460DB1294600E00121084600F0C7
:1047D000BBFE002070BD10B500F0E4FE002010BD4F
:1047E00010B5FFF79AFF10B101F0CCF810BD01F041
:1047F000C3F8FBE77FB504460D46606998B1A06930
:1048000088B1B4F90800FFF7D3FF0646D4E90510D4
:10481000CDE9006102902B462269D4E9001001F035
:104820004DF8039013E0B4F90800FFF7C1FF064606
:1048300003A8CDE90060238A9AB22B46D4E9001080
:1048400001F00AF8012802D0002004B070BD0398DE
:10485000FBE700002DE9F04105460E461C480768BD
:104860001C480068001D00F02FFD50B91948006871
:1048700090F82C1001208840174909688143164898
:104880000160681C38B936B112480168091D134827
:1048900000F064FD1AE07C190E4800684460BC42D8
:1048A00007D20C480168091D0D48006800F03CFD66
:1048B0000CE008480168091D0A48006800F034FD52
:1048C00009480068844201D207480460BDE8F081CD
:1048D00048020020340200204C020020D8070020AB
:1048E0003C020020380200206402002010B504467B
:1048F00000F040FD23480068401C2249086022481F
:10490000006840B9204804600846006801280DD1BD
:1049100000F03EF90AE01D48006838B91A480068FE
:10492000C06AE16A884201D81748046018480068E4
:10493000401C1749086094F82C1001208840154944
:104940000968084313490860E16A01EB8101124AD2
:1049500002EB8100211D00F001FD00F035FD0B4848
:10496000006868B108480068C06AE16A884207D2F6
:104970004FF0805009490860BFF34F8FBFF36F8F2E
:1049800010BD00004402002034020020500200202C
:10499000600200204C020020FC06002004ED00E034
:1049A00010B516E000F0E6FC0C48C068C468201D95
:1049B00000F08AFC0A480068401E0949086009485E
:1049C0000068401E0749086000F0FEFC204600F029
:1049D0000BF8044800680028E4D110BDC40700208B
:1049E000440200204002002010B5044694F8510013
:1049F00030B9206B00F006FD204600F003FD1AE000
:104A000094F85100012803D1204600F0FBFC12E08D
:104A100094F85100022801D1012000E0002050B993
:104A200000BF502080F31188BFF34F8FBFF36F8F0B
:104A300000BF00BFFEE710BD30B54FF470531748FC
:104A400000F007042CB1C01D20F00700134C041B1C
:104A50001B1B0246124C22600024114D6C60D018C2
:104A6000083820F007000F4C206000240D4D2D6801
:104A70006C600C4D2D682C601146441A4C60094C3A
:104A800024680C60084D4C682C60084D4C682C6004
:104A90004FF00044064D2C6030BD0000EC070020B4
:104AA0007002002078020020800200207C0200209A
:104AB0008C02002000BFFFF773FF06480068012842
:104AC000F9D94FF0805004490860BFF34F8FBFF30E
:104AD0006F8FF0E7FC06002004ED00E02DE9FF5F9A
:104AE00081460E469246DDE90E7B109CAAF101003C
:104AF000216B01EB800828F0070808F0070008B9CF
:104B0000012000E0002050B900BF502080F3118840
:104B1000BFF34F8FBFF36F8F00BF00BFFEE786B1BB
:104B2000002507E0715D04F134004155705D00B966
:104B300002E06D1C102DF5D300BF0021432001556C
:104B400002E0002084F83400072F00D30627E76234
:104B500067640020A064201D00F0E3FB04F118004E
:104B600000F0DFFB2461C7F10700A0616462002050
:104B7000E06484F8500049464046039A00F050F93A
:104B80002060BBF1000F01D0CBF80040BDE8FF9FD3
:104B900010B5002407E004EB84010F4A02EB81000A
:104BA00000F0B2FB641C072CF5D30C4800F0ACFB02
:104BB0000B4800F0A9FB0B4800F0A6FB0A4800F0E8
:104BC000A3FB0A4800F0A0FB044809490860044818
:104BD0000849086010BD0000FC060020880700207E
:104BE0009C070020B0070020C4070020D807002041
:104BF000380200203C02002010B50146164800E0B3
:104C0000006803688B42FBD30246436813448B421F
:104C100004D143684C682344436001460A464B680C
:104C200013440468A34211D10C4C03682468A342C6
:104C300008D04B680468646823444B6003681B68B1
:104C40000B6005E0054B1B680B6001E003680B601F
:104C5000884200D0016010BD700200207802002060
:104C60000A490968096809B9012100E0002121B158
:104C70004FF0FF31064A116006E004490968C9682F
:104C8000C868034A4168116070470000380200207C
:104C9000640200200E480068401C08B9012000E0B2
:104CA000002050B900BF502080F31188BFF34F8F10
:104CB000BFF36F8F00BF00BFFEE700BF502080F33F
:104CC0001188BFF34F8FBFF36F8F00BF00BFFEE7A8
:104CD000900200202DE9F04104464FF0000800F05A
:104CE000B9FC4948006808B9FFF7A6FE47480068C4
:104CF0002040002870D1D4B1083404F00700B0B1CE
:104D000004F00700C0F10800044404F0070008B9EB
:104D1000012000E0002050B900BF502080F311882E
:104D2000BFF34F8FBFF36F8F00BF00BFFEE7002CB4
:104D300052D03748006884424ED8364E3046056817
:104D400001E02E462D686868A04202D2286800283B
:104D5000F7D12D48006885423ED0306800F1080840
:104D6000286830606868001B102819D92F1907F0CF
:104D7000070008B9012000E0002050B900BF502012
:104D800080F31188BFF34F8FBFF36F8F00BF00BF59
:104D9000FEE76868001B78606C603846FFF72CFF00
:104DA0001B4968680968081A1949086008460068BC
:104DB00019490968884203D21548006816490860F5
:104DC0001249686809680843686000202860134831
:104DD0000068401C1149086000F082FE08F00700DE
:104DE00008B9012000E0002050B900BF502080F336
:104DF0001188BFF34F8FBFF36F8F00BF00BFFEE777
:104E00004046BDE8F0810000780200208C020020BE
:104E10007C0200207002002080020020840200201A
:104E2000001F4FF080730360001F21F00103036037
:104E3000001F054B036014380260001F6FF002036F
:104E40000360203870470000954C000810B52DED28
:104E5000048B1E48B0F9040000EE100AB8EEC00A38
:104E6000B0EE408A1948B0F9020000EE900AF8EE60
:104E7000E00AB0EE600A1648FEF7E6FAF0EE408A65
:104E80001448C0ED058AB0EE480AFEF7DDFABDEE23
:104E9000C00A10EE100A00B200EE100AB8EEC00A06
:104EA000B0EE409ABDEEC90A10EE100A404204B2BC
:104EB000200A094908704C700A464FF400710748EF
:104EC000FBF738FBBDEC048B10BD00001000002088
:104ED0004C000020DC000020C601002068050020F6
:104EE00010B52DED048B1D48B0F9040000EE100A3A
:104EF000B8EEC00AB0EE408A1848B0F9020000EEE1
:104F0000900AF8EEE00AB0EE600A1548FEF79CFA47
:104F1000F0EE408A1348C0ED058AB0EE480AFEF76D
:104F200093FABDEEC00A10EE100A00B200EE100AAD
:104F3000B8EEC00AB0EE409ABDEEC90A10EE100AF3
:104F400004B2200A084908704C700A464FF40071F8
:104F50000648FBF7EFFABDEC048B10BD10000020F3
:104F60004C000020DC000020CE0100209005002035
:104F700070B52DED048B4B48B0F9040000EE100A1B
:104F8000B8EEC00AB0EE409A47480088A8BB454832
:104F9000B0F9020000EE900AF8EEE00AB0EE600A06
:104FA0004248FEF761FBB0EE408A414880ED058A39
:104FB000B0EE490AFEF758FBBDEEC00A10EE100A2B
:104FC00000B200EE100AB8EEC00AF0EE408ABDEE64
:104FD000E80A10EE100A00B2364908800846008838
:104FE000000A3549887033480078C8700A4640F294
:104FF000FF213248FBF79EFA52E0FFE72A4800887B
:1050000001284DD12E48007878B900202949088020
:105010002948002101604160024640F2FF212748F3
:10502000FBF788FABDEC048B70BDFBF7ADFA0446C4
:105030001C49B1F90000FFF75BFABCEEC00A10EEA4
:10504000100A85B200EE104AB8EE400A1D4880ED05
:10505000050A00EE105AB8EE400AFEF705FBB0EE66
:10506000408A134880ED058AB0EE490AFEF7FCFA43
:10507000F0EE408ABDEEE80A10EE100A00B20D49CB
:10508000088008460088000A0B49887009480078A3
:10509000C8700A4640F2FF210848FBF74BFA00BFF0
:1050A00000BFBFE700000020B40100204C0000203A
:1050B000DC00002018000020B60100206805002058
:1050C000440000209400002010B52DED068B7048A0
:1050D000007840BB9FED6F0A6F4880ED000A9FED9E
:1050E0006D0A6E4880ED060A9FED6A0A6C4880EDF5
:1050F000060A9FED680A694880ED0B0A9FED650A74
:10510000674880ED0B0A0020664908806648002148
:105110000160416002464FF400716448FBF70AFAEF
:10512000BDEC068B10BD9FED628A6248B0F90400A9
:1051300000EE100AF8EEC08A5F484089A0F580644E
:1051400000EE104AB8EEC00ADFED5C0A80EE209A4D
:10515000201E01DB014600E0414214290FD2002449
:105160009FED4C0A4D4880ED060A9FED4A0A4C48D7
:1051700080ED060A9FED470A474880ED000AB7EE2A
:10518000001AFFEE000AB0EE490AFFF7B1FAB0EEDE
:10519000409A192C09DD4A48B0F9000000EE100AC7
:1051A000B8EEC00A3D4880ED050A14F1190F0ADA7D
:1051B0004348B0F90000404200EE100AB8EEC00AC1
:1051C000364880ED050A192C10DC14F1190F0DDB9F
:1051D0009FED300A314880ED050A9FED2E0A80EDE3
:1051E000060A9FED2C0A2E4880ED060A3148B0F9D8
:1051F000020000EE900AF8EEE00AB0EE600A2748DE
:10520000FEF75EF8F0EE409A2A48B0F9040000EE8E
:10521000100AB8EEC00AB0EE401A2648B0F90200F3
:1052200000EE100AB8EEC00AF0EE400AB0EE482ACE
:10523000DFED181AB0EE690AFFF7A4F9B0EE40AA44
:10524000174880ED05AAB0EE680AFEF739F8BDEE02
:10525000C00A10EE100A00B200EE100AF8EEC0AA62
:10526000BDEEEA0A10EE100A00B20E4908800846A8
:105270000088000A0C4988710A480078C8710A46FB
:105280004FF400710F48FBF755F900BF48E70000E5
:105290004400002000000000F40100202401002050
:1052A0006C0100201A000020BE01002068050020CB
:1052B0006F12833A08000020B80200200000254445
:1052C000460000209005002001460A69D1E901301E
:1052D0009860D1E9010358605068884201D188681C
:1052E0005060002008611068401E10601068704710
:1052F000034B0360034B0B60802313607047000077
:10530000140300206803002000F1080141604FF001
:10531000FF31816000F10801C1600161002101607D
:10532000704700210161704710B502460B685C1C94
:105330000CB9106907E002F1080000E04068446819
:1053400024689C42FAD944684C604C68A16088602B
:1053500041600A611468641C146010BD42684A60B0
:1053600093688B60936859609160086103685B1C67
:105370000360704700BF502080F31188BFF34F8F48
:10538000BFF36F8F00BF0E480068401C0C490860D7
:1053900008460068012812D10A480068C0B208B95E
:1053A000012000E0002050B900BF502080F3118898
:1053B000BFF34F8FBFF36F8F00BF00BFFEE7704793
:1053C0009002002004ED00E00D48006850B900BFD5
:1053D000502080F31188BFF34F8FBFF36F8F00BF52
:1053E00000BFFEE706480068401E05490860084601
:1053F000006820B9002080F3118800BF00BF70470B
:105400009002002070B506463546002E44D0083D77
:105410002C46224960680968084008B1012000E074
:10542000002050B900BF502080F31188BFF34F8F88
:10543000BFF36F8F00BF00BFFEE7206808B90120EF
:1054400000E0002050B900BF502080F31188BFF366
:105450004F8FBFF36F8F00BF00BFFEE70F4960683B
:1054600009680840C0B12068B0B90C496068096893
:105470008843606000F0EEF80949606809680844F4
:10548000074908602046FFF7B7FB06480068401C44
:105490000449086000F024FB70BD00008C0200206D
:1054A0007C0200208802002000204FF0E0210861EB
:1054B0008861064800684FF47A71B0FBF1F0401E35
:1054C0004FF0E0214861072008617047300200205A
:1054D00070B5FAF7C1FE0446102C16D304F1E02093
:1054E00090F8F05315480078854201DB012000E078
:1054F000002050B900BF502080F31188BFF34F8FB8
:10550000BFF36F8F00BF00BFFEE70D48006800F4D7
:10551000E0600C490968884201D8012000E00020C1
:1055200050B900BF502080F31188BFF34F8FBFF3F5
:105530006F8F00BF00BFFEE770BD00009402002027
:105540000CED00E09802002070B504460025D4B1AF
:105550001248006808B9012000E0002050B900BFDF
:10556000502080F31188BFF34F8FBFF36F8F00BFC0
:1055700000BFFEE700F06EF800212046FFF76AF951
:1055800000F0AEFA05463DB94FF08050044908607E
:10559000BFF34F8FBFF36F8F70BD00006C02002010
:1055A00004ED00E010B586B000200590049003AA39
:1055B00004A905A8FFF79CFE0022DDE904101346AC
:1055C000CDE9002102901CA11D48039A00F076F954
:1055D0001C4908600846006808B1012400E0002466
:1055E000012C15D100BF502080F31188BFF34F8FDD
:1055F000BFF36F8F00BF4FF0FF30134908600120E9
:105600001249086000201249086000F071F810E0AB
:10561000601C08B1012000E0002050B900BF5020FC
:1056200080F31188BFF34F8FBFF36F8F00BF00BFB0
:10563000FEE706B010BD000049444C4500000000E4
:10564000B54A0008680200206402002050020020D1
:105650004802002002480068401C01490860704769
:105660006C0200201D48006818B101201C49086028
:1056700032E000201A4908601A480068B0FA80F049
:10568000C0F11F0101EB8100174A52F8200008B158
:10569000012000E0002050B900BF502080F31188A5
:1056A000BFF34F8FBFF36F8F00BF00BFFEE701EB6B
:1056B00081020D4B03EB820042685268426000F1A8
:1056C00008024368934202D14268526842604268CD
:1056D000D268064B1A6000BF704700006C020020C1
:1056E000580200204C020020FC060020340200205A
:1056F0001CB5524800685249884201D0012000E0A0
:10570000002050B900BF502080F31188BFF34F8FA5
:10571000BFF36F8F00BF00BFFEE7484800684849ED
:10572000491E884201D0012000E0002050B900BF8E
:10573000502080F31188BFF34F8FBFF36F8F00BFEE
:1057400000BFFEE73F49084600780190FF200A4667
:1057500010700846007800909DF8000000F0F000FE
:105760009DF80020904201D1012000E0002050B9B6
:1057700000BF502080F31188BFF34F8FBFF36F8FAE
:1057800000BF00BFFEE79DF8000000F050002E4A69
:10579000107007202D4A106009E02C480068401E58
:1057A0002A4A10609DF800004006000E00909DF807
:1057B000000000F080008028EFD024480068C0F18D
:1057C0000700042801D1012000E0002050B900BFEB
:1057D000502080F31188BFF34F8FBFF36F8F00BF4E
:1057E00000BFFEE7194800680002184A1060104622
:1057F000008800F4E0601060124A019810700F48B1
:105800002030006840F470000C49203108600846E0
:10581000006840F070400860FFF746FE00200C4929
:105820000860FAF7E1FC0B48006840F04040094985
:105830000860FAF7C5FC00201CBD000000ED00E088
:1058400071C20F4100E400E09402002098020020A1
:105850009002002034EF00E02DE9FF4F85B0804634
:1058600089461746DDE912ABB800FFF733FA064662
:1058700056B15420FFF72EFA04460CB1266304E01B
:105880003046FFF7BFFD00E000248CB1002084F813
:105890005100CDE900ABCDE902403A4649464046C9
:1058A000089BFFF71BF92046FFF720F8012501E0D0
:1058B0004FF0FF35284609B0BDE8F08F2DE9F04FD5
:1058C00085B00746884691469A46DDE90EB6109C9B
:1058D0000EB1012000E0002050B900BF502080F33D
:1058E0001188BFF34F8FBFF36F8F00BF00BFFEE77C
:1058F0000CB1012000E0002050B900BF502080F31F
:105900001188BFF34F8FBFF36F8F00BF00BFFEE75B
:10591000542003900398542801D1012000E0002076
:1059200050B900BF502080F31188BFF34F8FBFF3F1
:105930006F8F00BF00BFFEE700BFB4B1AEB1254618
:105940002C462E63022085F85100002004A95346FE
:105950004A46CDE900B1CDE9025041463846FFF74D
:10596000BDF82846FEF7C2FF01E00020049004982D
:1059700005B0BDE8F08F00000149086870470000DD
:105980004802002070B5FFF7A3FD00250148046818
:10599000204670BD480200202DE9F0414FF000087C
:1059A0004448006800287CD143480068451C4248B0
:1059B000056015BB41480068006808B9012000E097
:1059C000002050B900BF502080F31188BFF34F8FE3
:1059D000BFF36F8F00BF00BFFEE738480768384845
:1059E0000068364908603648076036480068401C41
:1059F00034490860FFF734F900BF33480068854236
:105A00003CD300BF2D480068006808B9012000E0C1
:105A1000002020B14FF0FF302B4908602DE02748CF
:105A20000068C068C4686668B54202D2264806604D
:105A300023E0201DFFF748FCA06A18B104F118000C
:105A4000FFF742FC94F82C10012088401F49096898
:105A500008431E490860E16A01EB81011C4A02EB20
:105A60008100211DFFF77AFC1A49E06A0968C96ABA
:105A70008842C7D34FF00108C4E700BF154800684B
:105A8000C06A00EB8000124951F82000012801D9BA
:105A90004FF001081048006808B14FF0010805E018
:105AA000FFE70E480068401C0C4908604046BDE80E
:105AB000F08100006C020020480200203802002023
:105AC0003C0200205C020020640200204C02002006
:105AD000FC0600203402002058020020540200205E
